{
  "_format": "hh3-artifact-1",
  "contractName": "TournamentScores",
  "sourceName": "contracts/TournamentScores.sol",
  "abi": [
    {
      "inputs": [],
      "stateMutability": "nonpayable",
      "type": "constructor"
    },
    {
      "anonymous": false,
      "inputs": [
        {
          "indexed": true,
          "internalType": "address",
          "name": "previousOwner",
          "type": "address"
        },
        {
          "indexed": true,
          "internalType": "address",
          "name": "newOwner",
          "type": "address"
        }
      ],
      "name": "OwnershipTransferred",
      "type": "event"
    },
    {
      "anonymous": false,
      "inputs": [
        {
          "indexed": true,
          "internalType": "uint256",
          "name": "tournamentId",
          "type": "uint256"
        },
        {
          "indexed": false,
          "internalType": "string",
          "name": "odUserId",
          "type": "string"
        },
        {
          "indexed": false,
          "internalType": "string",
          "name": "organizer",
          "type": "string"
        },
        {
          "indexed": false,
          "internalType": "uint8",
          "name": "playerCount",
          "type": "uint8"
        },
        {
          "indexed": false,
          "internalType": "uint8",
          "name": "matchCount",
          "type": "uint8"
        },
        {
          "indexed": false,
          "internalType": "string",
          "name": "winner",
          "type": "string"
        },
        {
          "indexed": false,
          "internalType": "uint256",
          "name": "timestamp",
          "type": "uint256"
        }
      ],
      "name": "TournamentRecorded",
      "type": "event"
    },
    {
      "inputs": [
        {
          "internalType": "uint256",
          "name": "tournamentId",
          "type": "uint256"
        }
      ],
      "name": "getMatchCount",
      "outputs": [
        {
          "internalType": "uint256",
          "name": "",
          "type": "uint256"
        }
      ],
      "stateMutability": "view",
      "type": "function"
    },
    {
      "inputs": [
        {
          "internalType": "uint256",
          "name": "tournamentId",
          "type": "uint256"
        }
      ],
      "name": "getPlayerCount",
      "outputs": [
        {
          "internalType": "uint256",
          "name": "",
          "type": "uint256"
        }
      ],
      "stateMutability": "view",
      "type": "function"
    },
    {
      "inputs": [
        {
          "internalType": "uint256",
          "name": "tournamentId",
          "type": "uint256"
        }
      ],
      "name": "getTournament",
      "outputs": [
        {
          "internalType": "string",
          "name": "odUserId",
          "type": "string"
        },
        {
          "internalType": "string",
          "name": "organizer",
          "type": "string"
        },
        {
          "internalType": "string[]",
          "name": "players",
          "type": "string[]"
        },
        {
          "internalType": "string",
          "name": "winner",
          "type": "string"
        },
        {
          "internalType": "uint256",
          "name": "timestamp",
          "type": "uint256"
        },
        {
          "internalType": "address",
          "name": "recordedBy",
          "type": "address"
        }
      ],
      "stateMutability": "view",
      "type": "function"
    },
    {
      "inputs": [],
      "name": "getTournamentCount",
      "outputs": [
        {
          "internalType": "uint256",
          "name": "",
          "type": "uint256"
        }
      ],
      "stateMutability": "view",
      "type": "function"
    },
    {
      "inputs": [
        {
          "internalType": "uint256",
          "name": "tournamentId",
          "type": "uint256"
        }
      ],
      "name": "getTournamentMatches",
      "outputs": [
        {
          "internalType": "string[]",
          "name": "player1s",
          "type": "string[]"
        },
        {
          "internalType": "string[]",
          "name": "player2s",
          "type": "string[]"
        },
        {
          "internalType": "uint8[]",
          "name": "scores1",
          "type": "uint8[]"
        },
        {
          "internalType": "uint8[]",
          "name": "scores2",
          "type": "uint8[]"
        },
        {
          "internalType": "uint8[]",
          "name": "rounds",
          "type": "uint8[]"
        }
      ],
      "stateMutability": "view",
      "type": "function"
    },
    {
      "inputs": [],
      "name": "owner",
      "outputs": [
        {
          "internalType": "address",
          "name": "",
          "type": "address"
        }
      ],
      "stateMutability": "view",
      "type": "function"
    },
    {
      "inputs": [
        {
          "internalType": "string",
          "name": "odUserId",
          "type": "string"
        },
        {
          "internalType": "string",
          "name": "organizer",
          "type": "string"
        },
        {
          "internalType": "string[]",
          "name": "players",
          "type": "string[]"
        },
        {
          "internalType": "string[]",
          "name": "matchPlayers1",
          "type": "string[]"
        },
        {
          "internalType": "string[]",
          "name": "matchPlayers2",
          "type": "string[]"
        },
        {
          "internalType": "uint8[]",
          "name": "matchScores1",
          "type": "uint8[]"
        },
        {
          "internalType": "uint8[]",
          "name": "matchScores2",
          "type": "uint8[]"
        },
        {
          "internalType": "uint8[]",
          "name": "matchRounds",
          "type": "uint8[]"
        },
        {
          "internalType": "string",
          "name": "winner",
          "type": "string"
        }
      ],
      "name": "recordTournament",
      "outputs": [
        {
          "internalType": "uint256",
          "name": "",
          "type": "uint256"
        }
      ],
      "stateMutability": "nonpayable",
      "type": "function"
    },
    {
      "inputs": [],
      "name": "tournamentCount",
      "outputs": [
        {
          "internalType": "uint256",
          "name": "",
          "type": "uint256"
        }
      ],
      "stateMutability": "view",
      "type": "function"
    },
    {
      "inputs": [
        {
          "internalType": "address",
          "name": "newOwner",
          "type": "address"
        }
      ],
      "name": "transferOwnership",
      "outputs": [],
      "stateMutability": "nonpayable",
      "type": "function"
    }
  ],
  "bytecode": "0x6080604052348015600e575f5ffd5b50335f5f6101000a81548173ffffffffffffffffffffffffffffffffffffffff021916908373ffffffffffffffffffffffffffffffffffffffff1602179055503373ffffffffffffffffffffffffffffffffffffffff165f73ffffffffffffffffffffffffffffffffffffffff167f8be0079c531659141344cd1fd0a4f28419497f9722a3daafe3b4186f6b6457e060405160405180910390a361280b806100b55f395ff3fe608060405234801561000f575f5ffd5b5060043610610091575f3560e01c80638da5cb5b116100645780638da5cb5b14610136578063ab1205e914610154578063c2ca18e414610184578063d8c57e85146101b4578063f2fde38b146101e857610091565b8063078c51f0146100955780631a5bd7fc146100b35780636e2b2c7c146100e857806376b79a1e14610106575b5f5ffd5b61009d610204565b6040516100aa9190611438565b60405180910390f35b6100cd60048036038101906100c8919061148c565b61020d565b6040516100df96959493929190611669565b60405180910390f35b6100f0610527565b6040516100fd9190611438565b60405180910390f35b610120600480360381019061011b919061148c565b61052d565b60405161012d9190611438565b60405180910390f35b61013e610591565b60405161014b91906116e4565b60405180910390f35b61016e6004803603810190610169919061148c565b6105b5565b60405161017b9190611438565b60405180910390f35b61019e60048036038101906101999190611a01565b610619565b6040516101ab9190611438565b60405180910390f35b6101ce60048036038101906101c9919061148c565b610db6565b6040516101df959493929190611c78565b60405180910390f35b61020260048036038101906101fd9190611d16565b611268565b005b5f600254905090565b6060806060805f5f6002548710610259576040517f08c379a000000000000000000000000000000000000000000000000000000000815260040161025090611d8b565b60405180910390fd5b5f60015f8981526020019081526020015f209050805f018160010182600201836004018460050154856006015f9054906101000a900473ffffffffffffffffffffffffffffffffffffffff168580546102b190611dd6565b80601f01602080910402602001604051908101604052809291908181526020018280546102dd90611dd6565b80156103285780601f106102ff57610100808354040283529160200191610328565b820191905f5260205f20905b81548152906001019060200180831161030b57829003601f168201915b5050505050955084805461033b90611dd6565b80601f016020809104026020016040519081016040528092919081815260200182805461036790611dd6565b80156103b25780601f10610389576101008083540402835291602001916103b2565b820191905f5260205f20905b81548152906001019060200180831161039557829003601f168201915b5050505050945083805480602002602001604051908101604052809291908181526020015f905b82821015610481578382905f5260205f200180546103f690611dd6565b80601f016020809104026020016040519081016040528092919081815260200182805461042290611dd6565b801561046d5780601f106104445761010080835404028352916020019161046d565b820191905f5260205f20905b81548152906001019060200180831161045057829003601f168201915b5050505050815260200190600101906103d9565b50505050935082805461049390611dd6565b80601f01602080910402602001604051908101604052809291908181526020018280546104bf90611dd6565b801561050a5780601f106104e15761010080835404028352916020019161050a565b820191905f5260205f20905b8154815290600101906020018083116104ed57829003601f168201915b505050505092509650965096509650965096505091939550919395565b60025481565b5f6002548210610572576040517f08c379a000000000000000000000000000000000000000000000000000000000815260040161056990611d8b565b60405180910390fd5b60015f8381526020019081526020015f20600301805490509050919050565b5f5f9054906101000a900473ffffffffffffffffffffffffffffffffffffffff1681565b5f60025482106105fa576040517f08c379a00000000000000000000000000000000000000000000000000000000081526004016105f190611d8b565b60405180910390fd5b60015f8381526020019081526020015f20600201805490509050919050565b5f5f5f9054906101000a900473ffffffffffffffffffffffffffffffffffffffff1673ffffffffffffffffffffffffffffffffffffffff163373ffffffffffffffffffffffffffffffffffffffff16146106a8576040517f08c379a000000000000000000000000000000000000000000000000000000000815260040161069f90611e76565b60405180910390fd5b60248a51146106ec576040517f08c379a00000000000000000000000000000000000000000000000000000000081526004016106e390611ede565b60405180910390fd5b5f89511161072f576040517f08c379a000000000000000000000000000000000000000000000000000000000815260040161072690611f46565b60405180910390fd5b603289511115610774576040517f08c379a000000000000000000000000000000000000000000000000000000000815260040161076b90611fae565b60405180910390fd5b6002885110156107b9576040517f08c379a00000000000000000000000000000000000000000000000000000000081526004016107b090612016565b60405180910390fd5b6008885111156107fe576040517f08c379a00000000000000000000000000000000000000000000000000000000081526004016107f59061207e565b60405180910390fd5b5f825111610841576040517f08c379a0000000000000000000000000000000000000000000000000000000008152600401610838906120e6565b60405180910390fd5b603282511115610886576040517f08c379a000000000000000000000000000000000000000000000000000000000815260040161087d9061214e565b60405180910390fd5b5f875190505f81116108cd576040517f08c379a00000000000000000000000000000000000000000000000000000000081526004016108c4906121b6565b60405180910390fd5b8087511480156108dd5750808651145b80156108e95750808551145b80156108f55750808451145b610934576040517f08c379a000000000000000000000000000000000000000000000000000000000815260040161092b90612244565b60405180910390fd5b5f5f90505b8951811015610a0b575f8a828151811061095657610955612262565b5b6020026020010151511161099f576040517f08c379a0000000000000000000000000000000000000000000000000000000008152600401610996906122d9565b60405180910390fd5b60328a82815181106109b4576109b3612262565b5b60200260200101515111156109fe576040517f08c379a00000000000000000000000000000000000000000000000000000000081526004016109f590612341565b60405180910390fd5b8080600101915050610939565b505f600254905060025f81548092919060010191905055505f60015f8381526020019081526020015f2090508c815f019081610a4791906124ff565b508b816001019081610a5991906124ff565b5084816004019081610a6b91906124ff565b5042816005018190555033816006015f6101000a81548173ffffffffffffffffffffffffffffffffffffffff021916908373ffffffffffffffffffffffffffffffffffffffff1602179055505f5f90505b8b51811015610b2057816002018c8281518110610adc57610adb612262565b5b6020026020010151908060018154018082558091505060019003905f5260205f20015f909190919091509081610b1291906124ff565b508080600101915050610abc565b505f5f90505b83811015610d5f575f8b8281518110610b4257610b41612262565b5b60200260200101515111610b8b576040517f08c379a0000000000000000000000000000000000000000000000000000000008152600401610b829061263e565b60405180910390fd5b5f8a8281518110610b9f57610b9e612262565b5b60200260200101515111610be8576040517f08c379a0000000000000000000000000000000000000000000000000000000008152600401610bdf906126cc565b60405180910390fd5b816003016040518060a001604052808d8481518110610c0a57610c09612262565b5b602002602001015181526020018c8481518110610c2a57610c29612262565b5b602002602001015181526020018b8481518110610c4a57610c49612262565b5b602002602001015160ff1681526020018a8481518110610c6d57610c6c612262565b5b602002602001015160ff168152602001898481518110610c9057610c8f612262565b5b602002602001015160ff16815250908060018154018082558091505060019003905f5260205f2090600302015f909190919091505f820151815f019081610cd791906124ff565b506020820151816001019081610ced91906124ff565b506040820151816002015f6101000a81548160ff021916908360ff16021790555060608201518160020160016101000a81548160ff021916908360ff16021790555060808201518160020160026101000a81548160ff021916908360ff16021790555050508080600101915050610b26565b50817f269093319b6954fb4c22531d842a6e813323e85b0e74da45af1430ab71ab70678e8e8e51878a42604051610d9b969594939291906126f9565b60405180910390a28193505050509998505050505050505050565b60608060608060606002548610610e02576040517f08c379a0000000000000000000000000000000000000000000000000000000008152600401610df990611d8b565b60405180910390fd5b5f60015f8881526020019081526020015f2090505f816003018054905090508067ffffffffffffffff811115610e3b57610e3a611705565b5b604051908082528060200260200182016040528015610e6e57816020015b6060815260200190600190039081610e595790505b5096508067ffffffffffffffff811115610e8b57610e8a611705565b5b604051908082528060200260200182016040528015610ebe57816020015b6060815260200190600190039081610ea95790505b5095508067ffffffffffffffff811115610edb57610eda611705565b5b604051908082528060200260200182016040528015610f095781602001602082028036833780820191505090505b5094508067ffffffffffffffff811115610f2657610f25611705565b5b604051908082528060200260200182016040528015610f545781602001602082028036833780820191505090505b5093508067ffffffffffffffff811115610f7157610f70611705565b5b604051908082528060200260200182016040528015610f9f5781602001602082028036833780820191505090505b5092505f5f90505b8181101561125c57826003018181548110610fc557610fc4612262565b5b905f5260205f2090600302015f018054610fde90611dd6565b80601f016020809104026020016040519081016040528092919081815260200182805461100a90611dd6565b80156110555780601f1061102c57610100808354040283529160200191611055565b820191905f5260205f20905b81548152906001019060200180831161103857829003601f168201915b505050505088828151811061106d5761106c612262565b5b602002602001018190525082600301818154811061108e5761108d612262565b5b905f5260205f20906003020160010180546110a890611dd6565b80601f01602080910402602001604051908101604052809291908181526020018280546110d490611dd6565b801561111f5780601f106110f65761010080835404028352916020019161111f565b820191905f5260205f20905b81548152906001019060200180831161110257829003601f168201915b505050505087828151811061113757611136612262565b5b602002602001018190525082600301818154811061115857611157612262565b5b905f5260205f2090600302016002015f9054906101000a900460ff1686828151811061118757611186612262565b5b602002602001019060ff16908160ff16815250508260030181815481106111b1576111b0612262565b5b905f5260205f20906003020160020160019054906101000a900460ff168582815181106111e1576111e0612262565b5b602002602001019060ff16908160ff168152505082600301818154811061120b5761120a612262565b5b905f5260205f20906003020160020160029054906101000a900460ff1684828151811061123b5761123a612262565b5b602002602001019060ff16908160ff16815250508080600101915050610fa7565b50505091939590929450565b5f5f9054906101000a900473ffffffffffffffffffffffffffffffffffffffff1673ffffffffffffffffffffffffffffffffffffffff163373ffffffffffffffffffffffffffffffffffffffff16146112f6576040517f08c379a00000000000000000000000000000000000000000000000000000000081526004016112ed90611e76565b60405180910390fd5b5f73ffffffffffffffffffffffffffffffffffffffff168173ffffffffffffffffffffffffffffffffffffffff1603611364576040517f08c379a000000000000000000000000000000000000000000000000000000000815260040161135b906127b7565b60405180910390fd5b8073ffffffffffffffffffffffffffffffffffffffff165f5f9054906101000a900473ffffffffffffffffffffffffffffffffffffffff1673ffffffffffffffffffffffffffffffffffffffff167f8be0079c531659141344cd1fd0a4f28419497f9722a3daafe3b4186f6b6457e060405160405180910390a3805f5f6101000a81548173ffffffffffffffffffffffffffffffffffffffff021916908373ffffffffffffffffffffffffffffffffffffffff16021790555050565b5f819050919050565b61143281611420565b82525050565b5f60208201905061144b5f830184611429565b92915050565b5f604051905090565b5f5ffd5b5f5ffd5b61146b81611420565b8114611475575f5ffd5b50565b5f8135905061148681611462565b92915050565b5f602082840312156114a1576114a061145a565b5b5f6114ae84828501611478565b91505092915050565b5f81519050919050565b5f82825260208201905092915050565b8281835e5f83830152505050565b5f601f19601f8301169050919050565b5f6114f9826114b7565b61150381856114c1565b93506115138185602086016114d1565b61151c816114df565b840191505092915050565b5f81519050919050565b5f82825260208201905092915050565b5f819050602082019050919050565b5f82825260208201905092915050565b5f61156a826114b7565b6115748185611550565b93506115848185602086016114d1565b61158d816114df565b840191505092915050565b5f6115a38383611560565b905092915050565b5f602082019050919050565b5f6115c182611527565b6115cb8185611531565b9350836020820285016115dd85611541565b805f5b8581101561161857848403895281516115f98582611598565b9450611604836115ab565b925060208a019950506001810190506115e0565b50829750879550505050505092915050565b5f73ffffffffffffffffffffffffffffffffffffffff82169050919050565b5f6116538261162a565b9050919050565b61166381611649565b82525050565b5f60c0820190508181035f83015261168181896114ef565b9050818103602083015261169581886114ef565b905081810360408301526116a981876115b7565b905081810360608301526116bd81866114ef565b90506116cc6080830185611429565b6116d960a083018461165a565b979650505050505050565b5f6020820190506116f75f83018461165a565b92915050565b5f5ffd5b5f5ffd5b7f4e487b71000000000000000000000000000000000000000000000000000000005f52604160045260245ffd5b61173b826114df565b810181811067ffffffffffffffff8211171561175a57611759611705565b5b80604052505050565b5f61176c611451565b90506117788282611732565b919050565b5f67ffffffffffffffff82111561179757611796611705565b5b6117a0826114df565b9050602081019050919050565b828183375f83830152505050565b5f6117cd6117c88461177d565b611763565b9050828152602081018484840111156117e9576117e8611701565b5b6117f48482856117ad565b509392505050565b5f82601f8301126118105761180f6116fd565b5b81356118208482602086016117bb565b91505092915050565b5f67ffffffffffffffff82111561184357611842611705565b5b602082029050602081019050919050565b5f5ffd5b5f61186a61186584611829565b611763565b9050808382526020820190506020840283018581111561188d5761188c611854565b5b835b818110156118d457803567ffffffffffffffff8111156118b2576118b16116fd565b5b8086016118bf89826117fc565b8552602085019450505060208101905061188f565b5050509392505050565b5f82601f8301126118f2576118f16116fd565b5b8135611902848260208601611858565b91505092915050565b5f67ffffffffffffffff82111561192557611924611705565b5b602082029050602081019050919050565b5f60ff82169050919050565b61194b81611936565b8114611955575f5ffd5b50565b5f8135905061196681611942565b92915050565b5f61197e6119798461190b565b611763565b905080838252602082019050602084028301858111156119a1576119a0611854565b5b835b818110156119ca57806119b68882611958565b8452602084019350506020810190506119a3565b5050509392505050565b5f82601f8301126119e8576119e76116fd565b5b81356119f884826020860161196c565b91505092915050565b5f5f5f5f5f5f5f5f5f6101208a8c031215611a1f57611a1e61145a565b5b5f8a013567ffffffffffffffff811115611a3c57611a3b61145e565b5b611a488c828d016117fc565b99505060208a013567ffffffffffffffff811115611a6957611a6861145e565b5b611a758c828d016117fc565b98505060408a013567ffffffffffffffff811115611a9657611a9561145e565b5b611aa28c828d016118de565b97505060608a013567ffffffffffffffff811115611ac357611ac261145e565b5b611acf8c828d016118de565b96505060808a013567ffffffffffffffff811115611af057611aef61145e565b5b611afc8c828d016118de565b95505060a08a013567ffffffffffffffff811115611b1d57611b1c61145e565b5b611b298c828d016119d4565b94505060c08a013567ffffffffffffffff811115611b4a57611b4961145e565b5b611b568c828d016119d4565b93505060e08a013567ffffffffffffffff811115611b7757611b7661145e565b5b611b838c828d016119d4565b9250506101008a013567ffffffffffffffff811115611ba557611ba461145e565b5b611bb18c828d016117fc565b9150509295985092959850929598565b5f81519050919050565b5f82825260208201905092915050565b5f819050602082019050919050565b611bf381611936565b82525050565b5f611c048383611bea565b60208301905092915050565b5f602082019050919050565b5f611c2682611bc1565b611c308185611bcb565b9350611c3b83611bdb565b805f5b83811015611c6b578151611c528882611bf9565b9750611c5d83611c10565b925050600181019050611c3e565b5085935050505092915050565b5f60a0820190508181035f830152611c9081886115b7565b90508181036020830152611ca481876115b7565b90508181036040830152611cb88186611c1c565b90508181036060830152611ccc8185611c1c565b90508181036080830152611ce08184611c1c565b90509695505050505050565b611cf581611649565b8114611cff575f5ffd5b50565b5f81359050611d1081611cec565b92915050565b5f60208284031215611d2b57611d2a61145a565b5b5f611d3884828501611d02565b91505092915050565b7f546f75726e616d656e7420646f6573206e6f74206578697374000000000000005f82015250565b5f611d756019836114c1565b9150611d8082611d41565b602082019050919050565b5f6020820190508181035f830152611da281611d69565b9050919050565b7f4e487b71000000000000000000000000000000000000000000000000000000005f52602260045260245ffd5b5f6002820490506001821680611ded57607f821691505b602082108103611e0057611dff611da9565b5b50919050565b7f4f6e6c79206f776e65722063616e2063616c6c20746869732066756e6374696f5f8201527f6e00000000000000000000000000000000000000000000000000000000000000602082015250565b5f611e606021836114c1565b9150611e6b82611e06565b604082019050919050565b5f6020820190508181035f830152611e8d81611e54565b9050919050565b7f496e76616c6964207573657220494420286d75737420626520555549442900005f82015250565b5f611ec8601e836114c1565b9150611ed382611e94565b602082019050919050565b5f6020820190508181035f830152611ef581611ebc565b9050919050565b7f4f7267616e697a657220616c6961732063616e6e6f7420626520656d707479005f82015250565b5f611f30601f836114c1565b9150611f3b82611efc565b602082019050919050565b5f6020820190508181035f830152611f5d81611f24565b9050919050565b7f4f7267616e697a657220616c69617320746f6f206c6f6e6700000000000000005f82015250565b5f611f986018836114c1565b9150611fa382611f64565b602082019050919050565b5f6020820190508181035f830152611fc581611f8c565b9050919050565b7f4d696e696d756d203220706c61796572732072657175697265640000000000005f82015250565b5f612000601a836114c1565b915061200b82611fcc565b602082019050919050565b5f6020820190508181035f83015261202d81611ff4565b9050919050565b7f4d6178696d756d203820706c617965727320616c6c6f776564000000000000005f82015250565b5f6120686019836114c1565b915061207382612034565b602082019050919050565b5f6020820190508181035f8301526120958161205c565b9050919050565b7f57696e6e657220616c6961732063616e6e6f7420626520656d707479000000005f82015250565b5f6120d0601c836114c1565b91506120db8261209c565b602082019050919050565b5f6020820190508181035f8301526120fd816120c4565b9050919050565b7f57696e6e657220616c69617320746f6f206c6f6e6700000000000000000000005f82015250565b5f6121386015836114c1565b915061214382612104565b602082019050919050565b5f6020820190508181035f8301526121658161212c565b9050919050565b7f4174206c65617374206f6e65206d6174636820726571756972656400000000005f82015250565b5f6121a0601b836114c1565b91506121ab8261216c565b602082019050919050565b5f6020820190508181035f8301526121cd81612194565b9050919050565b7f4d6174636820617272617973206d75737420686176652073616d65206c656e675f8201527f7468000000000000000000000000000000000000000000000000000000000000602082015250565b5f61222e6022836114c1565b9150612239826121d4565b604082019050919050565b5f6020820190508181035f83015261225b81612222565b9050919050565b7f4e487b71000000000000000000000000000000000000000000000000000000005f52603260045260245ffd5b7f506c6179657220616c6961732063616e6e6f7420626520656d707479000000005f82015250565b5f6122c3601c836114c1565b91506122ce8261228f565b602082019050919050565b5f6020820190508181035f8301526122f0816122b7565b9050919050565b7f506c6179657220616c69617320746f6f206c6f6e6700000000000000000000005f82015250565b5f61232b6015836114c1565b9150612336826122f7565b602082019050919050565b5f6020820190508181035f8301526123588161231f565b9050919050565b5f819050815f5260205f209050919050565b5f6020601f8301049050919050565b5f82821b905092915050565b5f600883026123bb7fffffffffffffffffffffffffffffffffffffffffffffffffffffffffffffffff82612380565b6123c58683612380565b95508019841693508086168417925050509392505050565b5f819050919050565b5f6124006123fb6123f684611420565b6123dd565b611420565b9050919050565b5f819050919050565b612419836123e6565b61242d61242582612407565b84845461238c565b825550505050565b5f5f905090565b612444612435565b61244f818484612410565b505050565b5b81811015612472576124675f8261243c565b600181019050612455565b5050565b601f8211156124b7576124888161235f565b61249184612371565b810160208510156124a0578190505b6124b46124ac85612371565b830182612454565b50505b505050565b5f82821c905092915050565b5f6124d75f19846008026124bc565b1980831691505092915050565b5f6124ef83836124c8565b9150826002028217905092915050565b612508826114b7565b67ffffffffffffffff81111561252157612520611705565b5b61252b8254611dd6565b612536828285612476565b5f60209050601f831160018114612567575f8415612555578287015190505b61255f85826124e4565b8655506125c6565b601f1984166125758661235f565b5f5b8281101561259c57848901518255600182019150602085019450602081019050612577565b868310156125b957848901516125b5601f8916826124c8565b8355505b6001600288020188555050505b505050505050565b7f4d6174636820706c617965723120616c6961732063616e6e6f7420626520656d5f8201527f7074790000000000000000000000000000000000000000000000000000000000602082015250565b5f6126286023836114c1565b9150612633826125ce565b604082019050919050565b5f6020820190508181035f8301526126558161261c565b9050919050565b7f4d6174636820706c617965723220616c6961732063616e6e6f7420626520656d5f8201527f7074790000000000000000000000000000000000000000000000000000000000602082015250565b5f6126b66023836114c1565b91506126c18261265c565b604082019050919050565b5f6020820190508181035f8301526126e3816126aa565b9050919050565b6126f381611936565b82525050565b5f60c0820190508181035f83015261271181896114ef565b9050818103602083015261272581886114ef565b905061273460408301876126ea565b61274160608301866126ea565b818103608083015261275381856114ef565b905061276260a0830184611429565b979650505050505050565b7f4e6577206f776e65722063616e6e6f74206265207a65726f20616464726573735f82015250565b5f6127a16020836114c1565b91506127ac8261276d565b602082019050919050565b5f6020820190508181035f8301526127ce81612795565b905091905056fea26469706673582212208e945e3fbd172a196a012fed31f901c896efa5a05b9b51a12710f4b01832148b64736f6c634300081c0033",
  "linkReferences": {},
  "deployedLinkReferences": {},
  "immutableReferences": {},
  "inputSourceName": "project/contracts/TournamentScores.sol",
  "buildInfoId": "solc-0_8_28-131488870c8248896b1c26b098ce214cd1b849a4"
}